:020000000B28CB
:10000800DE00030E8312A0000A08A100B92A0C28FA
:10001800D022B300D122B400B101B2018301142867
:1000280083169F01073083129900203083168500BC
:100038008312850183169501831285140516C7302E
:10004800831681000B11831281018B168B1783167F
:10005800851606308312B0001330AF00AD30AE0005
:10006800AE0B3428AF0B3428B00B34283B2883124E
:1000780085100630B0001330AF00AD30AE00AE0BC7
:100088004328AF0B4328B00B43284A288312B101F9
:1000980083168512831285121830AF005F30AE00C8
:1000A800AE0B5428AF0B5428831685168312810192
:1000B80063283103031D6128622863286728851A8D
:1000C800662867285D282730AE00AE0B69286C28A3
:1000D8008312810175283103031D7328742875283C
:1000E8007928851A782879286F28A0228312AE00EB
:1000F8002E08B300A022A0228312AE002E08B4005E
:10010800A022A0228312AE002E08B2003103031DE4
:100118008E288F289228B101B401B3015430F420FD
:100128000A308312A2000030A3003408AE00AF01E9
:100138002E08A4002F08A500A92183122208303E0A
:10014800F4200A308312A2000030A3003408AE0065
:10015800AF012E08A4002F08A5001122831222083F
:10016800303EF4202030F4204830F4200A30831246
:10017800A2000030A3003308AE00AF012E08A4008F
:100188002F08A500A92183122208303EF4200A3046
:100198008312A2000030A3003308AE00AF012E087E
:1001A800A4002F08A500112283122208303EF42053
:1001B8000A30F4208312851030303306031DE528F9
:1001C800E628E8288514E928851014303406031D2C
:1001D800EE28EF28F12805153D2805113D280B28A4
:1001E8008312AD002D08A3002308A5002D08A30045
:1001F8000310230CA4002408A6002D08A300023035
:100208000310A30CFF3E031D04292308A40024089F
:10021800A7002D08A30003300310A30CFF3E031D05
:1002280010292308A4002408A8002D08A3000430DE
:100238000310A30CFF3E031D1C292308A400240857
:10024800A9002D08A30005300310A30CFF3E031DD1
:1002580028292308A4002408AA002D08A300063092
:100268000310A30CFF3E031D34292308A40024080F
:10027800AB002D08A30007300310A30CFF3E031D9D
:1002880040292308A4002408AC0081010512C922D2
:1002980083128101251851295429831205165629DC
:1002A80083120512C9228312810126185C295F294D
:1002B80083120516612983120512C922831281014E
:1002C800271867296A29831205166C2983120512D3
:1002D800C9228312810128187229752983120516EB
:1002E800772983120512C9228312810129187D29D1
:1002F800802983120516822983120512C9228312C6
:1003080081012A1888298B29831205168D298312C1
:100318000512C922831281012B1893299629831269
:100328000516982983120512C922831281012C18F7
:100338009E29A12983120516A32983120512C92211
:10034800831281010516C92208008312A801A31F80
:10035800AE29AF29B629A209A309A20A0319A30A3B
:10036800A801A80AA51FB929BA29C329A409A5095A
:10037800A40A0319A50A0130A6002608A806A9019F
:10038800AA01220823040319CA29CB29022AA70192
:10039800A70AD92901300310A20DA30DFF3E031DA2
:1003A800CF290130A6002608A707A31FDC29DD29CD
:1003B800CE2901300310A90DAA0DFF3E031DDE2929
:1003C80023082502031DEA2922082402031CED291B
:1003D800EE29F5292208A4022308031CA503A50277
:1003E800291401300310A30CA20CFF3E031DF629AB
:1003F8000130A702031D012A022ADD292808031952
:10040800062A072A0C2AA909AA09A90A0319AA0A65
:100418002A08A3002908A20008008312A801A51F22
:10042800162A172A1E2AA409A509A40A0319A50A27
:10043800A801A80AA31F212A222A272AA209A30958
:10044800A20A0319A30A2208230403192C2A2D2A15
:100458005C2AA701A70A3B2A01300310A20DA30DAD
:10046800FF3E031D312A0130A6002608A707A31F57
:100478003E2A3F2A302A23082502031D452A22083E
:100488002402031C482A492A4F2A2208A4022308C6
:10049800031CA503A50201300310A30CA20CFF3E08
:1004A800031D502A0130A702031D5B2A5C2A3F2A3C
:1004B80028080319602A612A662AA409A509A40A3A
:1004C8000319A50A2508A3002408A200080083121E
:1004D800A3018101762A3103031D732A742A752A20
:1004E8007A2A8514851E792A7A2A6F2A0430A2006E
:1004F800A20B7C2A8312851E822A832A842AA301BE
:100508000730A200A20B862A8312851E8C2A8D2A08
:100518009C2AA301A30A8101982A3103031D952A65
:10052800962A972A9C2A0515851A9B2A9C2A912A7D
:1005380085100511230808008312A7010830A400BC
:100548002408A8006B228312A4002708A500250709
:100558002404A6002608A7000130A8022808031DC5
:10056800B62AB72AA62A270808000B1DBC2ABD2AC6
:10057800C22A0B1101308506B101B10A21088A008F
:10058800200E8300DE0E5E0E090023308312A200C7
:0C059800A20BCC2ACF2A080014340A342D
:02400E00F4318B
:00000001FF
