:020000000B28CB
:10000800DE00030E8312A0000A08A1006E280C2847
:1000180083010E2883169F01073083129900303020
:100028008316850083128501831695018312851432
:10003800C730831681000B11831281018B168B1731
:100048008316851606308312A4001330A300AD3042
:10005800A200A20B2D28A30B2D28A40B2D28342891
:100068008312851005110630A4001330A300AD30AB
:10007800A200A20B3D28A30B3D28A40B3D28442831
:10008800831205150630A4001330A300AD30A2007A
:10009800A20B4C28A30B4C28A40B4C2853288316DE
:1000A8008512831285120630A4001330A300AD30E8
:1000B800A200A20B5D28A30B5D28A40B5D28642871
:1000C800831685168312851E6A286B2834288514A2
:1000D80036280B280B1D7128722875280B11013042
:1000E800850621088A00200E8300DE0E5E0E0900B8
:02400E00F4318B
:00000001FF
