:020000000B28CB
:10000800DE00030E8312A0000A08A1003B280C287A
:1000180083010E2883169F0185100511051283128E
:100028000510851005110512051683169501C730B0
:1000380081000B11831281018B168B17831685168D
:1000480006308312A4001330A300AD30A200A20B27
:100058002B28A30B2B28A40B2B283228831205123C
:10006800851E372838283228051634280B280B1DFA
:100078003E283F2842280B110430850621088A00B3
:0A008800200E8300DE0E5E0E09005C
:02400E00F4318B
:00000001FF
