:020000000B28CB
:10000800DE00030E8312A0000A08A100B5280C2800
:10001800C320AE00C420AF00AC01AD018301142899
:1000280083169F01073083129900303083168500AC
:10003800831285018316950183128514C7308316B0
:1000480081000B11831281018B168B17831685167D
:1000580006308312AB001330AA00AD30A900A90BFB
:100068003328AA0B3328AB0B33283A288312851080
:100078000630AB001330AA00AD30A900A90B422806
:10008800AA0B4228AB0B42284928831685128312F3
:1000980085121830AA005F30A900A90B5128AA0BB5
:1000A8005128831685168312851A5B285C285728E1
:1000B8002730A900A90B5E2861288312851A6528B4
:1000C800662861289C208312A9002908AE008510A3
:1000D80042302E06031D712872283A2885143C28C0
:1000E8000B288312A30179288514851E7C287D2876
:1000F80078280430A200A20B7F288312851E852849
:1001080086288728A3010730A200A20B892883121A
:10011800851E8F2890289828A301A30A94280515DE
:10012800851A972898289328851005112308080010
:100138008312A7010830A4002408A80075208312A0
:10014800A4002708A50025072404A6002608A70060
:100158000130A8022808031DB228B328A2282708BE
:1001680008000B1DB828B928BC280B1101308506DA
:1001780021088A00200E8300DE0E5E0E090014346A
:020188000A3437
:02400E00F4318B
:00000001FF
