:020000000B28CB
:10000800DE00030E8312A0000A08A1007F290C2835
:100018009421B3009521B400B101B2018301C9282C
:100028008312AD002D08A3002308A5002D08A30006
:100038000310230CA4002408A6002D08A3000230F6
:100048000310A30CFF3E031D24282308A400240842
:10005800A7002D08A30003300310A30CFF3E031DC7
:1000680030282308A4002408A8002D08A300043081
:100078000310A30CFF3E031D3C282308A4002408FA
:10008800A9002D08A30005300310A30CFF3E031D93
:1000980048282308A4002408AA002D08A300063035
:1000A8000310A30CFF3E031D54282308A4002408B2
:1000B800AB002D08A30007300310A30CFF3E031D5F
:1000C80060282308A4002408AC00810105128D21B2
:1000D8008312810125187128742883120516762841
:1000E800831205128D218312810126187C287F280E
:1000F800831205168128831205128D21831281012E
:10010800271887288A28831205168C288312051237
:100118008D218312810128189228952883120516AB
:100128009728831205128D218312810129189D2891
:10013800A02883120516A228831205128D21831286
:1001480081012A18A828AB2883120516AD28831226
:1001580005128D21831281012B18B328B62883122A
:100168000516B828831205128D21831281012C18D7
:10017800BE28C12883120516C328831205128D21B3
:100188008312810105168D21080083169F0107300F
:100198008312990020308316850083128501831607
:1001A8009501831285140516C730831681000B113B
:1001B800831281018B168B178316851606308312DE
:1001C800B0001330AF00AD30AE00AE0BE928AF0B76
:1001D800E928B00BE928F028831285100630B00012
:1001E8001330AF00AD30AE00AE0BF828AF0BF828D7
:1001F800B00BF828FF288316851283128512183051
:10020800AF005F30AE00AE0B0729AF0B072983168E
:1002180085168312851A112912290D292730AE0057
:10022800AE0B142917298312851A1B291C29172993
:1002380066218312AE002E08B30066216621831260
:10024800AE002E08B4004F301420831285103030D1
:100258003306031D302931293329851434298510A3
:1002680014303406031D39293A293C290515F2288A
:100278000511F2280B288312A30143298514851E32
:100288004629472942290430A200A20B4929831292
:10029800851E4F2950295129A3010730A200A20B1E
:1002A80053298312851E59295A296229A301A30AB1
:1002B8005E290515851A612962295D2985100511B0
:1002C800230808008312A7010830A4002408A80006
:1002D8003F218312A4002708A50025072404A600AF
:1002E8002608A7000130A8022808031D7C297D29BB
:1002F8006C29270808000B1D8229832986290B11E0
:100308000130850621088A00200E8300DE0E5E0E6D
:10031800090023308312A200A20B90299329080018
:0403280014340A344B
:02400E00F4318B
:00000001FF
