:020000000B28CB
:10000800DE00030E8312A0000A08A100F3280C28C2
:100018000821AE000921AF00AC01AD01830114280D
:1000280083169F01073083129900203083168500BC
:100038008312850183169501831285140516C7302E
:10004800831681000B11831281018B168B1783167F
:10005800851606308312AB001330AA00AD30A90014
:10006800A90B3428AA0B3428AB0B34283B2883125D
:1000780085100630AB001330AA00AD30A900A90BDB
:100088004328AA0B4328AB0B43284A28831685121A
:10009800831285121830AA005F30A900A90B5228D4
:1000A800AA0B5228831685168312851A5C285D28A8
:1000B80058282730A900A90B5F2862288312851ABF
:1000C800662867286228DA208312A9002908AE006A
:1000D800DA20DA208312A9002908AF0099308A2093
:1000E8008312851030302E06031D7B287C287E283D
:1000F80085147F28851014302F06031D8428852831
:10010800872805153D2805113D280B2883128101F4
:100118000512012183128101051201218312810137
:100128000512012183128101051201218312810127
:100138000512012183128101051601218312810113
:100148000516012183128101051201218312810103
:10015800051201218312810105160121080083126D
:10016800A301B7288514851EBA28BB28B6280430F1
:10017800A200A20BBD288312851EC328C428C52847
:10018800A3010730A200A20BC7288312851ECD2821
:10019800CE28D628A301A30AD2280515851AD52862
:1001A800D628D12885100511230808008312A70135
:1001B8000830A4002408A800B3208312A40027084C
:1001C800A50025072404A6002608A7000130A802D8
:1001D8002808031DF028F128E028270808000B1D2F
:1001E800F628F728FA280B110130850621088A001D
:1001F800200E8300DE0E5E0E090023308312A2005B
:0C020800A20B04290729080014340A3452
:02400E00F4318B
:00000001FF
