:020000000B28CB
:10000800DE00030E8312A0000A08A100912A0C2822
:10001800A622B300A722B400B101B20183011428BB
:1000280083169F01073083129900203083168500BC
:100038008312850183169501831285140516C7302E
:10004800831681000B11831281018B168B1783167F
:10005800851606308312B0001330AF00AD30AE0005
:10006800AE0B3428AF0B3428B00B34283B2883124E
:1000780085100630B0001330AF00AD30AE00AE0BC7
:100088004328AF0B4328B00B43284A288316851210
:10009800831285121830AF005F30AE00AE0B5228C5
:1000A800AF0B5228831685168312851A5C285D28A3
:1000B80058282730AE00AE0B5F2862288312851AB5
:1000C80066286728622878228312AE002E08B300BB
:1000D800782278228312AE002E08B4007822782283
:1000E8008312AE002E08B2005430DA200A30831290
:1000F800A2000030A3003408AE00AF012E08A4000F
:100108002F08A5008F2183122208303EDA200A30FA
:100118008312A2000030A3003408AE00AF012E08FD
:10012800A4002F08A500F72183122208303EDA2008
:100138002030DA204830DA200A308312A20000305A
:10014800A3003308AE00AF012E08A4002F08A500B5
:100158008F2183122208303EDA200A308312A2004F
:100168000030A3003308AE00AF012E08A4002F080A
:10017800A500F72183122208303EDA200A30DA205F
:100188008312851030303306031DCB28CC28CE28A7
:100198008514CF28851014303406031DD428D5289B
:1001A800D72805153D2805113D280B288312AD00D9
:1001B8002D08A3002308A5002D08A3000310230C75
:1001C800A4002408A6002D08A30002300310A30CE5
:1001D800FF3E031DEA282308A4002408A7002D08D1
:1001E800A30003300310A30CFF3E031DF6282308C9
:1001F800A4002408A8002D08A30004300310A30CB1
:10020800FF3E031D02292308A4002408A9002D0885
:10021800A30005300310A30CFF3E031D0E2923087D
:10022800A4002408AA002D08A30006300310A30C7C
:10023800FF3E031D1A292308A4002408AB002D083B
:10024800A30007300310A30CFF3E031D2629230833
:10025800A4002408AC00810105129F2283128101A9
:10026800251837293A29831205163C2983120512C5
:100278009F228312810126184229452983120516D7
:100288004729831205129F228312810127184D29BD
:100298005029831205165229831205129F228312B0
:1002A8008101281858295B29831205165D298312B4
:1002B80005129F2283128101291863296629831256
:1002C80005166829831205129F22831281012A18B4
:1002D8006E297129831205167329831205129F222C
:1002E800831281012B1879297C29831205167E290E
:1002F800831205129F22831281012C1884298729D1
:10030800831205168929831205129F2283128101FF
:1003180005169F2208008312A801A31F9429952976
:100328009C29A209A309A20A0319A30AA801A80AD9
:10033800A51F9F29A029A929A409A509A40A031969
:10034800A50A0130A6002608A806A901AA012208C4
:1003580023040319B029B129E829A701A70ABF294D
:1003680001300310A20DA30DFF3E031DB529013076
:10037800A6002608A707A31FC229C329B42901304C
:100388000310A90DAA0DFF3E031DC4292308250249
:10039800031DD02922082402031CD329D429DB29D0
:1003A8002208A4022308031CA503A502291401306E
:1003B8000310A30CA20CFF3E031DDC290130A70289
:1003C800031DE729E829C32928080319EC29ED2981
:1003D800F229A909AA09A90A0319AA0A2A08A3003D
:1003E8002908A20008008312A801A51FFC29FD29DD
:1003F800042AA409A509A40A0319A50AA801A80A98
:10040800A31F072A082A0D2AA209A309A20A031969
:10041800A30A220823040319122A132A422AA7012D
:10042800A70A212A01300310A20DA30DFF3E031DC8
:10043800172A0130A6002608A707A31F242A252A61
:10044800162A23082502031D2B2A22082402031C2E
:100458002E2A2F2A352A2208A4022308031CA503C2
:10046800A50201300310A30CA20CFF3E031D362A7F
:100478000130A702031D412A422A252A2808031908
:10048800462A472A4C2AA409A509A40A0319A50A39
:100498002508A3002408A20008008312A301552AF6
:1004A8008514851E582A592A542A0430A200A20B02
:1004B8005B2A8312851E612A622A632AA3010730F8
:1004C800A200A20B652A8312851E6B2A6C2A742A45
:1004D800A301A30A702A0515851A732A742A6F2A9C
:1004E80085100511230808008312A7010830A4000D
:1004F8002408A80051228312A4002708A500250774
:100508002404A6002608A7000130A8022808031D15
:100518008E2A8F2A7E2A270808000B1D942A952ADE
:10052800982A0B110130850621088A00200E8300C5
:10053800DE0E5E0E090023308312A200A20BA22A4F
:08054800A52A080014340A344E
:02400E00F4318B
:00000001FF
